:1000000010E0A0E6B0E0EEEEF4E003C0C895319653
:100010000D92A237B107D1F720E0A2E7B0E001C00E
:100020001D92A637B207E1F71F920F920FB60F92FB
:1000300011248F9381E0809360008F910F900FBE09
:100040000F901F9018951F920F920FB60F921124C8
:100050002F933F934F935F936F937F938F939F93D0
:10006000AF93BF93EF93FF93349B05C0109285002D
:100070001092840010C0609184007091850080E02F
:1000800090E00E947D0160937200709373008093F2
:10009000740090937500FF91EF91BF91AF919F9184
:1000A0008F917F916F915F914F913F912F910F9021
:1000B0000FBE0F901F9018959B01AC0184E0220F9A
:1000C000331F441F551F8A95D1F760E074E284EF17
:1000D00090E00E942A01BA01A90141505109610929
:1000E0007109DB01CA0188279F70AA27BB27892FC6
:1000F0009A2FAB2FBB278093C5004093C400E1EC3F
:10010000F0E080818864808386E08093C200089557
:10011000909160009923E1F3109260008093C600F3
:100120000895CF93DF93EC0189910E948800888124
:100130008111FACFDF91CF910895CF93DF93CDB79F
:10014000DEB760970FB6F894DEBF0FBECDBF80E17B
:10015000E1E6F0E0DE01119601900D928A95E1F75B
:1001600060E875E280E090E00E945C003D9A3C9877
:10017000449A80916400877F809364001092850088
:10018000109284008091810081648093810082E0DC
:100190008093680080E180936C007894CE01019692
:1001A0000E94910045982AE02A95F1F700C0459AEF
:1001B00085E38A95F1F7000045986091720070918F
:1001C0007300809174009091750026E933E44BE050
:1001D0005DE30E94E40120E030E040E05FE30E9444
:1001E000E4010E9451018B0180E090E0083E23E091
:1001F000120720F00196085E1340F8CF805D0E9440
:10020000880080E090E00436110520F00196045645
:100210001109F9CF805D0E94880080E090E00A30EB
:10022000110520F001960A501109F9CF805D0E9456
:10023000880080E3800F0E9488008AE00E94880086
:100240008FEF93EC29E0815090402040E1F700C00F
:100250000000A8CFA1E21A2EAA1BBB1BEA2FFB2F7E
:100260000DC0AA1FBB1FEE1FFF1FA217B307E40795
:10027000F50720F0A21BB30BE40BF50B661F771FED
:10028000881F991F1A9469F76095709580959095CD
:10029000262F372F482F592F6A2F7B2F8E2F9F2FD6
:1002A000089570D088F09F5790F0B92F9927B751D3
:1002B000A0F0D1F0660F771F881F991F1AF0BA952A
:1002C000C9F712C0B13081F077D0B1E0089574C0A1
:1002D000672F782F8827B85F39F0B93FCCF3869520
:1002E00077956795B395D9F73EF49095809570957D
:1002F00061957F4F8F4F9F4F0895E89409C097FBFA
:100300003EF490958095709561957F4F8F4F9F4FEC
:100310009923A9F0F92F96E9BB279395F695879530
:1003200077956795B795F111F8CFFAF4BB0F11F4F3
:1003300060FF1BC06F5F7F4F8F4F9F4F16C088239A
:1003400011F096E911C0772321F09EE8872F762FD0
:1003500005C0662371F096E8862F70E060E02AF011
:100360009A95660F771F881FDAF7880F96958795FD
:1003700097F9089557FD9058440F551F59F05F3F66
:1003800071F04795880F97FB991F61F09F3F79F0B7
:1003900087950895121613061406551FF2CF469539
:1003A000F1DF08C0161617061806991FF1CF8695BB
:1003B0007105610508940895E894BB27662777279F
:1003C000862F972F97F908950AD080C071D028F012
:1003D00076D018F0952309F062C067C0EECFCADF6F
:1003E000A8F39923D9F35523C9F3950F50E0551F6E
:1003F000AA27EE27FF27BB2700240894679520F43F
:10040000E20FF31FB41F0A1E220F331F441FAA1F3F
:100410006695A9F7779530F4F30FB41F0A1E121EE4
:1004200008F46395330F441FAA1F221F769599F78E
:10043000879520F4B40F0A1E121E631F440FAA1FD3
:10044000221F331F8695A9F7862F712D602D112449
:100450009F5750408AF0E1F088234AF0EE0FFF1FCB
:10046000BB1F661F771F881F91505040A9F79E3F02
:10047000510570F014C0A1CF5F3FECF3983EDCF360
:10048000869577956795B795F795E7959F5FC1F73F
:10049000FE2B880F911D9695879597F9089597F9EA
:1004A0009F6780E870E060E008959FEF80EC08951A
:1004B00000240A9416161706180609060895002443
:1004C0000A9412161306140605060895092E0394BD
:1004D000000C11F4882352F0BB0F40F4BF2B11F431
:0E04E00060FF04C06F5F7F4F8F4F9F4F0895E6
:1004EE000150726F6772616D2053746172740A00ED
:0204FE000000FC
:00000001FF
